{
  "_format": "hh-sol-artifact-1",
  "contractName": "ERC721",
  "sourceName": "contracts/Redeem.sol",
  "abi": [
    {
      "inputs": [
        {
          "internalType": "string",
          "name": "name_",
          "type": "string"
        },
        {
          "internalType": "string",
          "name": "symbol_",
          "type": "string"
        }
      ],
      "stateMutability": "nonpayable",
      "type": "constructor"
    },
    {
      "anonymous": false,
      "inputs": [
        {
          "indexed": true,
          "internalType": "address",
          "name": "owner",
          "type": "address"
        },
        {
          "indexed": true,
          "internalType": "address",
          "name": "approved",
          "type": "address"
        },
        {
          "indexed": true,
          "internalType": "uint256",
          "name": "tokenId",
          "type": "uint256"
        }
      ],
      "name": "Approval",
      "type": "event"
    },
    {
      "anonymous": false,
      "inputs": [
        {
          "indexed": true,
          "internalType": "address",
          "name": "owner",
          "type": "address"
        },
        {
          "indexed": true,
          "internalType": "address",
          "name": "operator",
          "type": "address"
        },
        {
          "indexed": false,
          "internalType": "bool",
          "name": "approved",
          "type": "bool"
        }
      ],
      "name": "ApprovalForAll",
      "type": "event"
    },
    {
      "anonymous": false,
      "inputs": [
        {
          "indexed": false,
          "internalType": "uint256",
          "name": "tokenId",
          "type": "uint256"
        },
        {
          "indexed": false,
          "internalType": "uint256",
          "name": "value",
          "type": "uint256"
        }
      ],
      "name": "Bought",
      "type": "event"
    },
    {
      "anonymous": false,
      "inputs": [
        {
          "indexed": false,
          "internalType": "uint256",
          "name": "id",
          "type": "uint256"
        },
        {
          "indexed": false,
          "internalType": "uint256",
          "name": "price",
          "type": "uint256"
        }
      ],
      "name": "ForSale",
      "type": "event"
    },
    {
      "anonymous": false,
      "inputs": [
        {
          "indexed": true,
          "internalType": "address",
          "name": "from",
          "type": "address"
        },
        {
          "indexed": true,
          "internalType": "address",
          "name": "to",
          "type": "address"
        },
        {
          "indexed": true,
          "internalType": "uint256",
          "name": "tokenId",
          "type": "uint256"
        }
      ],
      "name": "Transfer",
      "type": "event"
    },
    {
      "inputs": [
        {
          "internalType": "uint256",
          "name": "",
          "type": "uint256"
        }
      ],
      "name": "Bazaar",
      "outputs": [
        {
          "internalType": "uint256",
          "name": "tokenId",
          "type": "uint256"
        },
        {
          "internalType": "uint256",
          "name": "price",
          "type": "uint256"
        },
        {
          "internalType": "enum ERC721.TokenState",
          "name": "state",
          "type": "uint8"
        }
      ],
      "stateMutability": "view",
      "type": "function"
    },
    {
      "inputs": [
        {
          "internalType": "address",
          "name": "to",
          "type": "address"
        },
        {
          "internalType": "uint256",
          "name": "tokenId",
          "type": "uint256"
        }
      ],
      "name": "approve",
      "outputs": [],
      "stateMutability": "nonpayable",
      "type": "function"
    },
    {
      "inputs": [
        {
          "internalType": "address",
          "name": "owner",
          "type": "address"
        }
      ],
      "name": "balanceOf",
      "outputs": [
        {
          "internalType": "uint256",
          "name": "",
          "type": "uint256"
        }
      ],
      "stateMutability": "view",
      "type": "function"
    },
    {
      "inputs": [],
      "name": "baseURI",
      "outputs": [
        {
          "internalType": "string",
          "name": "",
          "type": "string"
        }
      ],
      "stateMutability": "view",
      "type": "function"
    },
    {
      "inputs": [
        {
          "internalType": "uint256",
          "name": "tokenId",
          "type": "uint256"
        }
      ],
      "name": "getApproved",
      "outputs": [
        {
          "internalType": "address",
          "name": "",
          "type": "address"
        }
      ],
      "stateMutability": "view",
      "type": "function"
    },
    {
      "inputs": [
        {
          "internalType": "address",
          "name": "owner",
          "type": "address"
        },
        {
          "internalType": "address",
          "name": "operator",
          "type": "address"
        }
      ],
      "name": "isApprovedForAll",
      "outputs": [
        {
          "internalType": "bool",
          "name": "",
          "type": "bool"
        }
      ],
      "stateMutability": "view",
      "type": "function"
    },
    {
      "inputs": [],
      "name": "name",
      "outputs": [
        {
          "internalType": "string",
          "name": "",
          "type": "string"
        }
      ],
      "stateMutability": "view",
      "type": "function"
    },
    {
      "inputs": [
        {
          "internalType": "uint256",
          "name": "tokenId",
          "type": "uint256"
        }
      ],
      "name": "ownerOf",
      "outputs": [
        {
          "internalType": "address",
          "name": "",
          "type": "address"
        }
      ],
      "stateMutability": "view",
      "type": "function"
    },
    {
      "inputs": [
        {
          "internalType": "address",
          "name": "from",
          "type": "address"
        },
        {
          "internalType": "address",
          "name": "to",
          "type": "address"
        },
        {
          "internalType": "uint256",
          "name": "tokenId",
          "type": "uint256"
        }
      ],
      "name": "safeTransferFrom",
      "outputs": [],
      "stateMutability": "nonpayable",
      "type": "function"
    },
    {
      "inputs": [
        {
          "internalType": "address",
          "name": "from",
          "type": "address"
        },
        {
          "internalType": "address",
          "name": "to",
          "type": "address"
        },
        {
          "internalType": "uint256",
          "name": "tokenId",
          "type": "uint256"
        },
        {
          "internalType": "bytes",
          "name": "_data",
          "type": "bytes"
        }
      ],
      "name": "safeTransferFrom",
      "outputs": [],
      "stateMutability": "nonpayable",
      "type": "function"
    },
    {
      "inputs": [
        {
          "internalType": "address",
          "name": "operator",
          "type": "address"
        },
        {
          "internalType": "bool",
          "name": "approved",
          "type": "bool"
        }
      ],
      "name": "setApprovalForAll",
      "outputs": [],
      "stateMutability": "nonpayable",
      "type": "function"
    },
    {
      "inputs": [
        {
          "internalType": "bytes4",
          "name": "interfaceId",
          "type": "bytes4"
        }
      ],
      "name": "supportsInterface",
      "outputs": [
        {
          "internalType": "bool",
          "name": "",
          "type": "bool"
        }
      ],
      "stateMutability": "view",
      "type": "function"
    },
    {
      "inputs": [],
      "name": "symbol",
      "outputs": [
        {
          "internalType": "string",
          "name": "",
          "type": "string"
        }
      ],
      "stateMutability": "view",
      "type": "function"
    },
    {
      "inputs": [
        {
          "internalType": "uint256",
          "name": "index",
          "type": "uint256"
        }
      ],
      "name": "tokenByIndex",
      "outputs": [
        {
          "internalType": "uint256",
          "name": "",
          "type": "uint256"
        }
      ],
      "stateMutability": "view",
      "type": "function"
    },
    {
      "inputs": [
        {
          "internalType": "address",
          "name": "owner",
          "type": "address"
        },
        {
          "internalType": "uint256",
          "name": "index",
          "type": "uint256"
        }
      ],
      "name": "tokenOfOwnerByIndex",
      "outputs": [
        {
          "internalType": "uint256",
          "name": "",
          "type": "uint256"
        }
      ],
      "stateMutability": "view",
      "type": "function"
    },
    {
      "inputs": [
        {
          "internalType": "uint256",
          "name": "tokenId",
          "type": "uint256"
        }
      ],
      "name": "tokenURI",
      "outputs": [
        {
          "internalType": "string",
          "name": "",
          "type": "string"
        }
      ],
      "stateMutability": "view",
      "type": "function"
    },
    {
      "inputs": [],
      "name": "totalSupply",
      "outputs": [
        {
          "internalType": "uint256",
          "name": "",
          "type": "uint256"
        }
      ],
      "stateMutability": "view",
      "type": "function"
    },
    {
      "inputs": [
        {
          "internalType": "address",
          "name": "from",
          "type": "address"
        },
        {
          "internalType": "address",
          "name": "to",
          "type": "address"
        },
        {
          "internalType": "uint256",
          "name": "tokenId",
          "type": "uint256"
        }
      ],
      "name": "transferFrom",
      "outputs": [],
      "stateMutability": "nonpayable",
      "type": "function"
    }
  ],
  "bytecode": "0x60806040523480156200001157600080fd5b5060405162001b4038038062001b408339810160408190526200003491620002a7565b620000466301ffc9a760e01b620000b0565b81516200005b90600890602085019062000134565b5080516200007190600990602084019062000134565b50620000846380ac58cd60e01b620000b0565b62000096635b5e139f60e01b620000b0565b620000a863780e9d6360e01b620000b0565b50506200034e565b6001600160e01b031980821614156200010f5760405162461bcd60e51b815260206004820152601c60248201527f4552433136353a20696e76616c696420696e7465726661636520696400000000604482015260640160405180910390fd5b6001600160e01b0319166000908152602081905260409020805460ff19166001179055565b828054620001429062000311565b90600052602060002090601f016020900481019282620001665760008555620001b1565b82601f106200018157805160ff1916838001178555620001b1565b82800160010185558215620001b1579182015b82811115620001b157825182559160200191906001019062000194565b50620001bf929150620001c3565b5090565b5b80821115620001bf5760008155600101620001c4565b634e487b7160e01b600052604160045260246000fd5b600082601f8301126200020257600080fd5b81516001600160401b03808211156200021f576200021f620001da565b604051601f8301601f19908116603f011681019082821181831017156200024a576200024a620001da565b816040528381526020925086838588010111156200026757600080fd5b600091505b838210156200028b57858201830151818301840152908201906200026c565b838211156200029d5760008385830101525b9695505050505050565b60008060408385031215620002bb57600080fd5b82516001600160401b0380821115620002d357600080fd5b620002e186838701620001f0565b93506020850151915080821115620002f857600080fd5b506200030785828601620001f0565b9150509250929050565b600181811c908216806200032657607f821691505b602082108114156200034857634e487b7160e01b600052602260045260246000fd5b50919050565b6117e2806200035e6000396000f3fe608060405234801561001057600080fd5b50600436106101165760003560e01c80636352211e116100a257806395d89b411161007157806395d89b4114610282578063a22cb4651461028a578063b88d4fde1461029d578063c87b56dd146102b0578063e985e9c5146102c357600080fd5b80636352211e146102145780636c0360eb1461022757806370a082311461022f5780637bd7525d1461024257600080fd5b806318160ddd116100e957806318160ddd146101b257806323b872dd146101c85780632f745c59146101db57806342842e0e146101ee5780634f6ccce71461020157600080fd5b806301ffc9a71461011b57806306fdde031461015d578063081812fc14610172578063095ea7b31461019d575b600080fd5b610148610129366004611279565b6001600160e01b03191660009081526020819052604090205460ff1690565b60405190151581526020015b60405180910390f35b6101656102ff565b60405161015491906112ee565b610185610180366004611301565b610391565b6040516001600160a01b039091168152602001610154565b6101b06101ab366004611336565b61041e565b005b6101ba610534565b604051908152602001610154565b6101b06101d6366004611360565b610545565b6101ba6101e9366004611336565b610576565b6101b06101fc366004611360565b6105a1565b6101ba61020f366004611301565b6105bc565b610185610222366004611301565b6105d2565b6101656105fa565b6101ba61023d36600461139c565b610609565b610273610250366004611301565b600160208190526000918252604090912080549181015460029091015460ff1683565b604051610154939291906113b7565b610165610695565b6101b06102983660046113f1565b6106a4565b6101b06102ab366004611443565b610769565b6101656102be366004611301565b6107a1565b6101486102d136600461151f565b6001600160a01b03918216600090815260076020908152604080832093909416825291909152205460ff1690565b60606008805461030e90611552565b80601f016020809104026020016040519081016040528092919081815260200182805461033a90611552565b80156103875780601f1061035c57610100808354040283529160200191610387565b820191906000526020600020905b81548152906001019060200180831161036a57829003601f168201915b5050505050905090565b600061039c82610913565b6104025760405162461bcd60e51b815260206004820152602c60248201527f4552433732313a20617070726f76656420717565727920666f72206e6f6e657860448201526b34b9ba32b73a103a37b5b2b760a11b60648201526084015b60405180910390fd5b506000908152600660205260409020546001600160a01b031690565b6000610429826105d2565b9050806001600160a01b0316836001600160a01b031614156104975760405162461bcd60e51b815260206004820152602160248201527f4552433732313a20617070726f76616c20746f2063757272656e74206f776e656044820152603960f91b60648201526084016103f9565b336001600160a01b03821614806104b357506104b381336102d1565b6105255760405162461bcd60e51b815260206004820152603860248201527f4552433732313a20617070726f76652063616c6c6572206973206e6f74206f7760448201527f6e6572206e6f7220617070726f76656420666f7220616c6c000000000000000060648201526084016103f9565b61052f8383610920565b505050565b6000610540600461098e565b905090565b61054f3382610998565b61056b5760405162461bcd60e51b81526004016103f99061158d565b61052f838383610a82565b6001600160a01b03821660009081526003602052604081206105989083610c2e565b90505b92915050565b61052f83838360405180602001604052806000815250610769565b6000806105ca600484610c3a565b509392505050565b600061059b826040518060600160405280602981526020016117846029913960049190610c56565b6060600b805461030e90611552565b60006001600160a01b0382166106745760405162461bcd60e51b815260206004820152602a60248201527f4552433732313a2062616c616e636520717565727920666f7220746865207a65604482015269726f206164647265737360b01b60648201526084016103f9565b6001600160a01b038216600090815260036020526040902061059b9061098e565b60606009805461030e90611552565b6001600160a01b0382163314156106fd5760405162461bcd60e51b815260206004820152601960248201527f4552433732313a20617070726f766520746f2063616c6c65720000000000000060448201526064016103f9565b3360008181526007602090815260408083206001600160a01b03871680855290835292819020805460ff191686151590811790915590519081529192917f17307eab39ab6107e8899845ad3d59bd9653f200f220920489ca2b5937696c31910160405180910390a35050565b6107733383610998565b61078f5760405162461bcd60e51b81526004016103f99061158d565b61079b84848484610c6d565b50505050565b60606107ac82610913565b6108105760405162461bcd60e51b815260206004820152602f60248201527f4552433732314d657461646174613a2055524920717565727920666f72206e6f60448201526e3732bc34b9ba32b73a103a37b5b2b760891b60648201526084016103f9565b6000828152600a60205260408120805461082990611552565b80601f016020809104026020016040519081016040528092919081815260200182805461085590611552565b80156108a25780601f10610877576101008083540402835291602001916108a2565b820191906000526020600020905b81548152906001019060200180831161088557829003601f168201915b5050505050905060006108b36105fa565b90508051600014156108c6575092915050565b8151156108f85780826040516020016108e09291906115de565b60405160208183030381529060405292505050919050565b8061090285610ca0565b6040516020016108e09291906115de565b600061059b600483610d9e565b600081815260066020526040902080546001600160a01b0319166001600160a01b0384169081179091558190610955826105d2565b6001600160a01b03167f8c5be1e5ebec7d5bd14f71427d1e84f3dd0314c0f7b2291e5b200ac8c7c3b92560405160405180910390a45050565b600061059b825490565b60006109a382610913565b610a045760405162461bcd60e51b815260206004820152602c60248201527f4552433732313a206f70657261746f7220717565727920666f72206e6f6e657860448201526b34b9ba32b73a103a37b5b2b760a11b60648201526084016103f9565b6000610a0f836105d2565b9050806001600160a01b0316846001600160a01b03161480610a4a5750836001600160a01b0316610a3f84610391565b6001600160a01b0316145b80610a7a57506001600160a01b0380821660009081526007602090815260408083209388168352929052205460ff165b949350505050565b826001600160a01b0316610a95826105d2565b6001600160a01b031614610afd5760405162461bcd60e51b815260206004820152602960248201527f4552433732313a207472616e73666572206f6620746f6b656e2074686174206960448201526839903737ba1037bbb760b91b60648201526084016103f9565b6001600160a01b038216610b5f5760405162461bcd60e51b8152602060048201526024808201527f4552433732313a207472616e7366657220746f20746865207a65726f206164646044820152637265737360e01b60648201526084016103f9565b610b6a600082610920565b6001600160a01b0383166000908152600360205260409020610b8c9082610db6565b506001600160a01b0382166000908152600360205260409020610baf9082610dc2565b50610bbc60048284610dce565b50610be8816000908152600160208190526040822090810191909155600201805460ff19166004179055565b80826001600160a01b0316846001600160a01b03167fddf252ad1be2c89b69c2b068fc378daa952ba7f163c4a11628f55a4df523b3ef60405160405180910390a4505050565b60006105988383610de4565b6000808080610c498686610e6a565b9097909650945050505050565b6000610c63848484610f07565b90505b9392505050565b610c78848484610a82565b610c8484848484610f70565b61079b5760405162461bcd60e51b81526004016103f99061160d565b606081610cc45750506040805180820190915260018152600360fc1b602082015290565b8160005b8115610cee5780610cd881611675565b9150610ce79050600a836116a6565b9150610cc8565b60008167ffffffffffffffff811115610d0957610d0961142d565b6040519080825280601f01601f191660200182016040528015610d33576020820181803683370190505b5090505b8415610a7a57610d486001836116ba565b9150610d55600a866116d1565b610d609060306116e5565b60f81b818381518110610d7557610d756116fd565b60200101906001600160f81b031916908160001a905350610d97600a866116a6565b9450610d37565b60008181526001830160205260408120541515610598565b6000610598838361107d565b60006105988383611170565b6000610c6384846001600160a01b0385166111bf565b81546000908210610e425760405162461bcd60e51b815260206004820152602260248201527f456e756d657261626c655365743a20696e646578206f7574206f6620626f756e604482015261647360f01b60648201526084016103f9565b826000018281548110610e5757610e576116fd565b9060005260206000200154905092915050565b815460009081908310610eca5760405162461bcd60e51b815260206004820152602260248201527f456e756d657261626c654d61703a20696e646578206f7574206f6620626f756e604482015261647360f01b60648201526084016103f9565b6000846000018481548110610ee157610ee16116fd565b906000526020600020906002020190508060000154816001015492509250509250929050565b60008281526001840160205260408120548281610f375760405162461bcd60e51b81526004016103f991906112ee565b5084610f446001836116ba565b81548110610f5457610f546116fd565b9060005260206000209060020201600101549150509392505050565b60006001600160a01b0384163b1561107257604051630a85bd0160e11b81526001600160a01b0385169063150b7a0290610fb4903390899088908890600401611713565b602060405180830381600087803b158015610fce57600080fd5b505af1925050508015610ffe575060408051601f3d908101601f19168201909252610ffb91810190611750565b60015b611058573d80801561102c576040519150601f19603f3d011682016040523d82523d6000602084013e611031565b606091505b5080516110505760405162461bcd60e51b81526004016103f99061160d565b805181602001fd5b6001600160e01b031916630a85bd0160e11b149050610a7a565b506001949350505050565b600081815260018301602052604081205480156111665760006110a16001836116ba565b85549091506000906110b5906001906116ba565b905060008660000182815481106110ce576110ce6116fd565b90600052602060002001549050808760000184815481106110f1576110f16116fd565b6000918252602090912001556111088360016116e5565b6000828152600189016020526040902055865487908061112a5761112a61176d565b6001900381819060005260206000200160009055905586600101600087815260200190815260200160002060009055600194505050505061059b565b600091505061059b565b60008181526001830160205260408120546111b75750815460018181018455600084815260208082209093018490558454848252828601909352604090209190915561059b565b50600061059b565b600082815260018401602052604081205480611224575050604080518082018252838152602080820184815286546001818101895560008981528481209551600290930290950191825591519082015586548684528188019092529290912055610c66565b82856112316001846116ba565b81548110611241576112416116fd565b9060005260206000209060020201600101819055506000915050610c66565b6001600160e01b03198116811461127657600080fd5b50565b60006020828403121561128b57600080fd5b8135610c6681611260565b60005b838110156112b1578181015183820152602001611299565b8381111561079b5750506000910152565b600081518084526112da816020860160208601611296565b601f01601f19169290920160200192915050565b60208152600061059860208301846112c2565b60006020828403121561131357600080fd5b5035919050565b80356001600160a01b038116811461133157600080fd5b919050565b6000806040838503121561134957600080fd5b6113528361131a565b946020939093013593505050565b60008060006060848603121561137557600080fd5b61137e8461131a565b925061138c6020850161131a565b9150604084013590509250925092565b6000602082840312156113ae57600080fd5b6105988261131a565b8381526020810183905260608101600583106113e357634e487b7160e01b600052602160045260246000fd5b826040830152949350505050565b6000806040838503121561140457600080fd5b61140d8361131a565b91506020830135801515811461142257600080fd5b809150509250929050565b634e487b7160e01b600052604160045260246000fd5b6000806000806080858703121561145957600080fd5b6114628561131a565b93506114706020860161131a565b925060408501359150606085013567ffffffffffffffff8082111561149457600080fd5b818701915087601f8301126114a857600080fd5b8135818111156114ba576114ba61142d565b604051601f8201601f19908116603f011681019083821181831017156114e2576114e261142d565b816040528281528a60208487010111156114fb57600080fd5b82602086016020830137600060208483010152809550505050505092959194509250565b6000806040838503121561153257600080fd5b61153b8361131a565b91506115496020840161131a565b90509250929050565b600181811c9082168061156657607f821691505b6020821081141561158757634e487b7160e01b600052602260045260246000fd5b50919050565b60208082526031908201527f4552433732313a207472616e736665722063616c6c6572206973206e6f74206f6040820152701ddb995c881b9bdc88185c1c1c9bdd9959607a1b606082015260800190565b600083516115f0818460208801611296565b835190830190611604818360208801611296565b01949350505050565b60208082526032908201527f4552433732313a207472616e7366657220746f206e6f6e20455243373231526560408201527131b2b4bb32b91034b6b83632b6b2b73a32b960711b606082015260800190565b634e487b7160e01b600052601160045260246000fd5b60006000198214156116895761168961165f565b5060010190565b634e487b7160e01b600052601260045260246000fd5b6000826116b5576116b5611690565b500490565b6000828210156116cc576116cc61165f565b500390565b6000826116e0576116e0611690565b500690565b600082198211156116f8576116f861165f565b500190565b634e487b7160e01b600052603260045260246000fd5b6001600160a01b0385811682528416602082015260408101839052608060608201819052600090611746908301846112c2565b9695505050505050565b60006020828403121561176257600080fd5b8151610c6681611260565b634e487b7160e01b600052603160045260246000fdfe4552433732313a206f776e657220717565727920666f72206e6f6e6578697374656e7420746f6b656ea26469706673582212204700cbda699bea436d31fd42a20f2ee67738fb9be7020874e5143ff47c31c7c464736f6c63430008090033",
  "linkReferences": {},
  "deployedLinkReferences": {}
}