{
  "_format": "hh-sol-artifact-1",
  "contractName": "HuskyJoeHat",
  "sourceName": "contracts/Redeem.sol",
  "abi": [
    {
      "inputs": [],
      "stateMutability": "nonpayable",
      "type": "constructor"
    },
    {
      "anonymous": false,
      "inputs": [
        {
          "indexed": true,
          "internalType": "address",
          "name": "owner",
          "type": "address"
        },
        {
          "indexed": true,
          "internalType": "address",
          "name": "approved",
          "type": "address"
        },
        {
          "indexed": true,
          "internalType": "uint256",
          "name": "tokenId",
          "type": "uint256"
        }
      ],
      "name": "Approval",
      "type": "event"
    },
    {
      "anonymous": false,
      "inputs": [
        {
          "indexed": true,
          "internalType": "address",
          "name": "owner",
          "type": "address"
        },
        {
          "indexed": true,
          "internalType": "address",
          "name": "operator",
          "type": "address"
        },
        {
          "indexed": false,
          "internalType": "bool",
          "name": "approved",
          "type": "bool"
        }
      ],
      "name": "ApprovalForAll",
      "type": "event"
    },
    {
      "anonymous": false,
      "inputs": [
        {
          "indexed": false,
          "internalType": "uint256",
          "name": "tokenId",
          "type": "uint256"
        },
        {
          "indexed": false,
          "internalType": "uint256",
          "name": "value",
          "type": "uint256"
        }
      ],
      "name": "Bought",
      "type": "event"
    },
    {
      "anonymous": false,
      "inputs": [
        {
          "indexed": false,
          "internalType": "uint256",
          "name": "id",
          "type": "uint256"
        },
        {
          "indexed": false,
          "internalType": "uint256",
          "name": "price",
          "type": "uint256"
        }
      ],
      "name": "ForSale",
      "type": "event"
    },
    {
      "anonymous": false,
      "inputs": [
        {
          "indexed": false,
          "internalType": "address",
          "name": "nftMinter",
          "type": "address"
        },
        {
          "indexed": false,
          "internalType": "uint256",
          "name": "nftId",
          "type": "uint256"
        }
      ],
      "name": "Mint",
      "type": "event"
    },
    {
      "anonymous": false,
      "inputs": [
        {
          "indexed": true,
          "internalType": "address",
          "name": "previousOwner",
          "type": "address"
        },
        {
          "indexed": true,
          "internalType": "address",
          "name": "newOwner",
          "type": "address"
        }
      ],
      "name": "OwnershipTransferred",
      "type": "event"
    },
    {
      "anonymous": false,
      "inputs": [
        {
          "indexed": true,
          "internalType": "address",
          "name": "from",
          "type": "address"
        },
        {
          "indexed": true,
          "internalType": "address",
          "name": "to",
          "type": "address"
        },
        {
          "indexed": true,
          "internalType": "uint256",
          "name": "tokenId",
          "type": "uint256"
        }
      ],
      "name": "Transfer",
      "type": "event"
    },
    {
      "inputs": [
        {
          "internalType": "uint256",
          "name": "",
          "type": "uint256"
        }
      ],
      "name": "Bazaar",
      "outputs": [
        {
          "internalType": "uint256",
          "name": "tokenId",
          "type": "uint256"
        },
        {
          "internalType": "uint256",
          "name": "price",
          "type": "uint256"
        },
        {
          "internalType": "enum ERC721.TokenState",
          "name": "state",
          "type": "uint8"
        }
      ],
      "stateMutability": "view",
      "type": "function"
    },
    {
      "inputs": [],
      "name": "MAX_HUSKY",
      "outputs": [
        {
          "internalType": "uint256",
          "name": "",
          "type": "uint256"
        }
      ],
      "stateMutability": "view",
      "type": "function"
    },
    {
      "inputs": [],
      "name": "_contractowner",
      "outputs": [
        {
          "internalType": "address",
          "name": "",
          "type": "address"
        }
      ],
      "stateMutability": "view",
      "type": "function"
    },
    {
      "inputs": [],
      "name": "_hasSaleStarted",
      "outputs": [
        {
          "internalType": "bool",
          "name": "",
          "type": "bool"
        }
      ],
      "stateMutability": "view",
      "type": "function"
    },
    {
      "inputs": [
        {
          "internalType": "address",
          "name": "",
          "type": "address"
        }
      ],
      "name": "_nbNFTHolders",
      "outputs": [
        {
          "internalType": "uint256",
          "name": "",
          "type": "uint256"
        }
      ],
      "stateMutability": "view",
      "type": "function"
    },
    {
      "inputs": [
        {
          "internalType": "uint256",
          "name": "",
          "type": "uint256"
        }
      ],
      "name": "_persons",
      "outputs": [
        {
          "internalType": "address",
          "name": "",
          "type": "address"
        }
      ],
      "stateMutability": "view",
      "type": "function"
    },
    {
      "inputs": [
        {
          "internalType": "address",
          "name": "to",
          "type": "address"
        },
        {
          "internalType": "uint256",
          "name": "tokenId",
          "type": "uint256"
        }
      ],
      "name": "approve",
      "outputs": [],
      "stateMutability": "nonpayable",
      "type": "function"
    },
    {
      "inputs": [
        {
          "internalType": "address",
          "name": "owner",
          "type": "address"
        }
      ],
      "name": "balanceOf",
      "outputs": [
        {
          "internalType": "uint256",
          "name": "",
          "type": "uint256"
        }
      ],
      "stateMutability": "view",
      "type": "function"
    },
    {
      "inputs": [],
      "name": "baseURI",
      "outputs": [
        {
          "internalType": "string",
          "name": "",
          "type": "string"
        }
      ],
      "stateMutability": "view",
      "type": "function"
    },
    {
      "inputs": [
        {
          "internalType": "uint256",
          "name": "tokenId",
          "type": "uint256"
        }
      ],
      "name": "getApproved",
      "outputs": [
        {
          "internalType": "address",
          "name": "",
          "type": "address"
        }
      ],
      "stateMutability": "view",
      "type": "function"
    },
    {
      "inputs": [
        {
          "internalType": "address",
          "name": "owner",
          "type": "address"
        },
        {
          "internalType": "address",
          "name": "operator",
          "type": "address"
        }
      ],
      "name": "isApprovedForAll",
      "outputs": [
        {
          "internalType": "bool",
          "name": "",
          "type": "bool"
        }
      ],
      "stateMutability": "view",
      "type": "function"
    },
    {
      "inputs": [
        {
          "internalType": "uint256",
          "name": "maxHusky",
          "type": "uint256"
        }
      ],
      "name": "mintHusky",
      "outputs": [],
      "stateMutability": "payable",
      "type": "function"
    },
    {
      "inputs": [],
      "name": "name",
      "outputs": [
        {
          "internalType": "string",
          "name": "",
          "type": "string"
        }
      ],
      "stateMutability": "view",
      "type": "function"
    },
    {
      "inputs": [],
      "name": "owner",
      "outputs": [
        {
          "internalType": "address",
          "name": "",
          "type": "address"
        }
      ],
      "stateMutability": "view",
      "type": "function"
    },
    {
      "inputs": [
        {
          "internalType": "uint256",
          "name": "tokenId",
          "type": "uint256"
        }
      ],
      "name": "ownerOf",
      "outputs": [
        {
          "internalType": "address",
          "name": "",
          "type": "address"
        }
      ],
      "stateMutability": "view",
      "type": "function"
    },
    {
      "inputs": [],
      "name": "pauseDrop",
      "outputs": [],
      "stateMutability": "nonpayable",
      "type": "function"
    },
    {
      "inputs": [
        {
          "internalType": "address",
          "name": "tokenAddress",
          "type": "address"
        },
        {
          "internalType": "uint256",
          "name": "tokenAmount",
          "type": "uint256"
        }
      ],
      "name": "recoverERC20",
      "outputs": [],
      "stateMutability": "nonpayable",
      "type": "function"
    },
    {
      "inputs": [],
      "name": "renounceOwnership",
      "outputs": [],
      "stateMutability": "nonpayable",
      "type": "function"
    },
    {
      "inputs": [
        {
          "internalType": "address",
          "name": "from",
          "type": "address"
        },
        {
          "internalType": "address",
          "name": "to",
          "type": "address"
        },
        {
          "internalType": "uint256",
          "name": "tokenId",
          "type": "uint256"
        }
      ],
      "name": "safeTransferFrom",
      "outputs": [],
      "stateMutability": "nonpayable",
      "type": "function"
    },
    {
      "inputs": [
        {
          "internalType": "address",
          "name": "from",
          "type": "address"
        },
        {
          "internalType": "address",
          "name": "to",
          "type": "address"
        },
        {
          "internalType": "uint256",
          "name": "tokenId",
          "type": "uint256"
        },
        {
          "internalType": "bytes",
          "name": "_data",
          "type": "bytes"
        }
      ],
      "name": "safeTransferFrom",
      "outputs": [],
      "stateMutability": "nonpayable",
      "type": "function"
    },
    {
      "inputs": [
        {
          "internalType": "address",
          "name": "operator",
          "type": "address"
        },
        {
          "internalType": "bool",
          "name": "approved",
          "type": "bool"
        }
      ],
      "name": "setApprovalForAll",
      "outputs": [],
      "stateMutability": "nonpayable",
      "type": "function"
    },
    {
      "inputs": [
        {
          "internalType": "string",
          "name": "baseURI",
          "type": "string"
        }
      ],
      "name": "setBaseURI",
      "outputs": [],
      "stateMutability": "nonpayable",
      "type": "function"
    },
    {
      "inputs": [
        {
          "internalType": "uint256",
          "name": "id",
          "type": "uint256"
        },
        {
          "internalType": "string",
          "name": "tokenURI",
          "type": "string"
        }
      ],
      "name": "setTokenURI",
      "outputs": [],
      "stateMutability": "nonpayable",
      "type": "function"
    },
    {
      "inputs": [],
      "name": "startDrop",
      "outputs": [],
      "stateMutability": "nonpayable",
      "type": "function"
    },
    {
      "inputs": [
        {
          "internalType": "bytes4",
          "name": "interfaceId",
          "type": "bytes4"
        }
      ],
      "name": "supportsInterface",
      "outputs": [
        {
          "internalType": "bool",
          "name": "",
          "type": "bool"
        }
      ],
      "stateMutability": "view",
      "type": "function"
    },
    {
      "inputs": [],
      "name": "symbol",
      "outputs": [
        {
          "internalType": "string",
          "name": "",
          "type": "string"
        }
      ],
      "stateMutability": "view",
      "type": "function"
    },
    {
      "inputs": [
        {
          "internalType": "uint256",
          "name": "index",
          "type": "uint256"
        }
      ],
      "name": "tokenByIndex",
      "outputs": [
        {
          "internalType": "uint256",
          "name": "",
          "type": "uint256"
        }
      ],
      "stateMutability": "view",
      "type": "function"
    },
    {
      "inputs": [
        {
          "internalType": "address",
          "name": "owner",
          "type": "address"
        },
        {
          "internalType": "uint256",
          "name": "index",
          "type": "uint256"
        }
      ],
      "name": "tokenOfOwnerByIndex",
      "outputs": [
        {
          "internalType": "uint256",
          "name": "",
          "type": "uint256"
        }
      ],
      "stateMutability": "view",
      "type": "function"
    },
    {
      "inputs": [
        {
          "internalType": "uint256",
          "name": "tokenId",
          "type": "uint256"
        }
      ],
      "name": "tokenURI",
      "outputs": [
        {
          "internalType": "string",
          "name": "",
          "type": "string"
        }
      ],
      "stateMutability": "view",
      "type": "function"
    },
    {
      "inputs": [
        {
          "internalType": "address",
          "name": "_owner",
          "type": "address"
        }
      ],
      "name": "tokensOfOwner",
      "outputs": [
        {
          "internalType": "uint256[]",
          "name": "",
          "type": "uint256[]"
        }
      ],
      "stateMutability": "view",
      "type": "function"
    },
    {
      "inputs": [],
      "name": "totalSupply",
      "outputs": [
        {
          "internalType": "uint256",
          "name": "",
          "type": "uint256"
        }
      ],
      "stateMutability": "view",
      "type": "function"
    },
    {
      "inputs": [
        {
          "internalType": "address",
          "name": "from",
          "type": "address"
        },
        {
          "internalType": "address",
          "name": "to",
          "type": "address"
        },
        {
          "internalType": "uint256",
          "name": "tokenId",
          "type": "uint256"
        }
      ],
      "name": "transferFrom",
      "outputs": [],
      "stateMutability": "nonpayable",
      "type": "function"
    },
    {
      "inputs": [
        {
          "internalType": "address",
          "name": "newOwner",
          "type": "address"
        }
      ],
      "name": "transferOwnership",
      "outputs": [],
      "stateMutability": "nonpayable",
      "type": "function"
    }
  ],
  "bytecode": "0x6080604052600c805460ff60a01b191690553480156200001e57600080fd5b506040518060400160405280600c81526020016b121d5cdade529bd94812185d60a21b8152506040518060400160405280600b81526020016a121554d2d65293d152105560aa1b815250620000806301ffc9a760e01b6200015960201b60201c565b81516200009590600890602085019062000261565b508051620000ab90600990602084019062000261565b50620000be6380ac58cd60e01b62000159565b620000d0635b5e139f60e01b62000159565b620000e263780e9d6360e01b62000159565b5050600c80546001600160a01b0319163390811790915560405181906000907f8be0079c531659141344cd1fd0a4f28419497f9722a3daafe3b4186f6b6457e0908290a3506040805160208101909152600081526200014190620001de565b600f80546001600160a01b0319163317905562000344565b6001600160e01b03198082161415620001b95760405162461bcd60e51b815260206004820152601c60248201527f4552433136353a20696e76616c696420696e746572666163652069640000000060448201526064015b60405180910390fd5b6001600160e01b0319166000908152602081905260409020805460ff19166001179055565b600c546001600160a01b031633146200023a5760405162461bcd60e51b815260206004820181905260248201527f4f776e61626c653a2063616c6c6572206973206e6f7420746865206f776e65726044820152606401620001b0565b620002458162000248565b50565b80516200025d90600b90602084019062000261565b5050565b8280546200026f9062000307565b90600052602060002090601f016020900481019282620002935760008555620002de565b82601f10620002ae57805160ff1916838001178555620002de565b82800160010185558215620002de579182015b82811115620002de578251825591602001919060010190620002c1565b50620002ec929150620002f0565b5090565b5b80821115620002ec5760008155600101620002f1565b600181811c908216806200031c57607f821691505b602082108114156200033e57634e487b7160e01b600052602260045260246000fd5b50919050565b61264880620003546000396000f3fe6080604052600436106101ee5760003560e01c806360e819771161010d5780638462151c116100a0578063a22cb4651161006f578063a22cb465146105b8578063b88d4fde146105d8578063c87b56dd146105f8578063e985e9c514610618578063f2fde38b1461066157600080fd5b80638462151c146105385780638980f11f146105655780638da5cb5b1461058557806395d89b41146105a357600080fd5b8063715018a6116100dc578063715018a61461049657806376adcab5146104ab5780637bd7525d146104be5780637d5e4fcd1461050b57600080fd5b806360e819771461042c5780636352211e146104415780636c0360eb1461046157806370a082311461047657600080fd5b80632779b6f01161018557806334d84c7b1161015457806334d84c7b146103b757806342842e0e146103cc5780634f6ccce7146103ec57806355f804b31461040c57600080fd5b80632779b6f0146103425780632808c92c146103625780632f745c5914610377578063328417411461039757600080fd5b8063162094c4116101c1578063162094c4146102be57806318160ddd146102de578063209c439f1461030157806323b872dd1461032257600080fd5b806301ffc9a7146101f357806306fdde0314610242578063081812fc14610264578063095ea7b31461029c575b600080fd5b3480156101ff57600080fd5b5061022d61020e366004611f78565b6001600160e01b03191660009081526020819052604090205460ff1690565b60405190151581526020015b60405180910390f35b34801561024e57600080fd5b50610257610681565b6040516102399190611fed565b34801561027057600080fd5b5061028461027f366004612000565b610713565b6040516001600160a01b039091168152602001610239565b3480156102a857600080fd5b506102bc6102b7366004612035565b6107a0565b005b3480156102ca57600080fd5b506102bc6102d936600461210b565b6108b6565b3480156102ea57600080fd5b506102f36108ee565b604051908152602001610239565b34801561030d57600080fd5b50600c5461022d90600160a01b900460ff1681565b34801561032e57600080fd5b506102bc61033d366004612152565b6108ff565b34801561034e57600080fd5b50600f54610284906001600160a01b031681565b34801561036e57600080fd5b506102bc610930565b34801561038357600080fd5b506102f3610392366004612035565b610969565b3480156103a357600080fd5b506102846103b2366004612000565b610994565b3480156103c357600080fd5b506102bc6109be565b3480156103d857600080fd5b506102bc6103e7366004612152565b6109fd565b3480156103f857600080fd5b506102f3610407366004612000565b610a18565b34801561041857600080fd5b506102bc61042736600461218e565b610a2e565b34801561043857600080fd5b506102f3606481565b34801561044d57600080fd5b5061028461045c366004612000565b610a64565b34801561046d57600080fd5b50610257610a8c565b34801561048257600080fd5b506102f36104913660046121c3565b610a9b565b3480156104a257600080fd5b506102bc610b27565b6102bc6104b9366004612000565b610b9b565b3480156104ca57600080fd5b506104fc6104d9366004612000565b600160208190526000918252604090912080549181015460029091015460ff1683565b604051610239939291906121de565b34801561051757600080fd5b506102f36105263660046121c3565b600e6020526000908152604090205481565b34801561054457600080fd5b506105586105533660046121c3565b610ca5565b6040516102399190612218565b34801561057157600080fd5b506102bc610580366004612035565b610d60565b34801561059157600080fd5b50600c546001600160a01b0316610284565b3480156105af57600080fd5b50610257610e24565b3480156105c457600080fd5b506102bc6105d336600461226a565b610e33565b3480156105e457600080fd5b506102bc6105f33660046122a1565b610ef8565b34801561060457600080fd5b50610257610613366004612000565b610f30565b34801561062457600080fd5b5061022d61063336600461231d565b6001600160a01b03918216600090815260076020908152604080832093909416825291909152205460ff1690565b34801561066d57600080fd5b506102bc61067c3660046121c3565b6110a2565b60606008805461069090612350565b80601f01602080910402602001604051908101604052809291908181526020018280546106bc90612350565b80156107095780601f106106de57610100808354040283529160200191610709565b820191906000526020600020905b8154815290600101906020018083116106ec57829003601f168201915b5050505050905090565b600061071e8261118d565b6107845760405162461bcd60e51b815260206004820152602c60248201527f4552433732313a20617070726f76656420717565727920666f72206e6f6e657860448201526b34b9ba32b73a103a37b5b2b760a11b60648201526084015b60405180910390fd5b506000908152600660205260409020546001600160a01b031690565b60006107ab82610a64565b9050806001600160a01b0316836001600160a01b031614156108195760405162461bcd60e51b815260206004820152602160248201527f4552433732313a20617070726f76616c20746f2063757272656e74206f776e656044820152603960f91b606482015260840161077b565b336001600160a01b038216148061083557506108358133610633565b6108a75760405162461bcd60e51b815260206004820152603860248201527f4552433732313a20617070726f76652063616c6c6572206973206e6f74206f7760448201527f6e6572206e6f7220617070726f76656420666f7220616c6c0000000000000000606482015260840161077b565b6108b1838361119a565b505050565b600c546001600160a01b031633146108e05760405162461bcd60e51b815260040161077b90612385565b6108ea8282611208565b5050565b60006108fa6004611291565b905090565b610909338261129b565b6109255760405162461bcd60e51b815260040161077b906123ba565b6108b1838383611385565b600c546001600160a01b0316331461095a5760405162461bcd60e51b815260040161077b90612385565b600c805460ff60a01b19169055565b6001600160a01b038216600090815260036020526040812061098b9083611531565b90505b92915050565b600d81815481106109a457600080fd5b6000918252602090912001546001600160a01b0316905081565b600c546001600160a01b031633146109e85760405162461bcd60e51b815260040161077b90612385565b600c805460ff60a01b1916600160a01b179055565b6108b183838360405180602001604052806000815250610ef8565b600080610a2660048461153d565b509392505050565b600c546001600160a01b03163314610a585760405162461bcd60e51b815260040161077b90612385565b610a6181611559565b50565b600061098e826040518060600160405280602981526020016125ea602991396004919061156c565b6060600b805461069090612350565b60006001600160a01b038216610b065760405162461bcd60e51b815260206004820152602a60248201527f4552433732313a2062616c616e636520717565727920666f7220746865207a65604482015269726f206164647265737360b01b606482015260840161077b565b6001600160a01b038216600090815260036020526040902061098e90611291565b600c546001600160a01b03163314610b515760405162461bcd60e51b815260040161077b90612385565b600c546040516000916001600160a01b0316907f8be0079c531659141344cd1fd0a4f28419497f9722a3daafe3b4186f6b6457e0908390a3600c80546001600160a01b0319169055565b600c546001600160a01b03163314610bc55760405162461bcd60e51b815260040161077b90612385565b600c54600160a01b900460ff161515600114610c235760405162461bcd60e51b815260206004820152601760248201527f73616c65206861736e2774207374617274656420796574000000000000000000604482015260640161077b565b6064610c3782610c316108ee565b90611583565b10610c775760405162461bcd60e51b815260206004820152601060248201526f195e18d9595908139195081b1a5b5a5d60821b604482015260640161077b565b60005b818110156108ea57610c9333610c8e6108ee565b61158f565b80610c9d81612421565b915050610c7a565b60606000610cb283610a9b565b905080610ccf576040805160008082526020820190925290610a26565b60008167ffffffffffffffff811115610cea57610cea61205f565b604051908082528060200260200182016040528015610d13578160200160208202803683370190505b50905060005b82811015610a2657610d2b8582610969565b828281518110610d3d57610d3d61243c565b602090810291909101015280610d5281612421565b915050610d19565b50919050565b600f546001600160a01b03163314610dba5760405162461bcd60e51b815260206004820152601e60248201527f436c61696d3a3a7265636f76657245524332303a206e6f74206f776e65720000604482015260640161077b565b60008111610e0a5760405162461bcd60e51b815260206004820181905260248201527f436c61696d3a3a7265636f76657245524332303a20616d6f756e742069732030604482015260640161077b565b600f546108ea906001600160a01b038481169116836116a7565b60606009805461069090612350565b6001600160a01b038216331415610e8c5760405162461bcd60e51b815260206004820152601960248201527f4552433732313a20617070726f766520746f2063616c6c657200000000000000604482015260640161077b565b3360008181526007602090815260408083206001600160a01b03871680855290835292819020805460ff191686151590811790915590519081529192917f17307eab39ab6107e8899845ad3d59bd9653f200f220920489ca2b5937696c31910160405180910390a35050565b610f02338361129b565b610f1e5760405162461bcd60e51b815260040161077b906123ba565b610f2a848484846116f9565b50505050565b6060610f3b8261118d565b610f9f5760405162461bcd60e51b815260206004820152602f60248201527f4552433732314d657461646174613a2055524920717565727920666f72206e6f60448201526e3732bc34b9ba32b73a103a37b5b2b760891b606482015260840161077b565b6000828152600a602052604081208054610fb890612350565b80601f0160208091040260200160405190810160405280929190818152602001828054610fe490612350565b80156110315780601f1061100657610100808354040283529160200191611031565b820191906000526020600020905b81548152906001019060200180831161101457829003601f168201915b505050505090506000611042610a8c565b9050805160001415611055575092915050565b81511561108757808260405160200161106f929190612452565b60405160208183030381529060405292505050919050565b806110918561172c565b60405160200161106f929190612452565b600c546001600160a01b031633146110cc5760405162461bcd60e51b815260040161077b90612385565b6001600160a01b0381166111315760405162461bcd60e51b815260206004820152602660248201527f4f776e61626c653a206e6577206f776e657220697320746865207a65726f206160448201526564647265737360d01b606482015260840161077b565b600c546040516001600160a01b038084169216907f8be0079c531659141344cd1fd0a4f28419497f9722a3daafe3b4186f6b6457e090600090a3600c80546001600160a01b0319166001600160a01b0392909216919091179055565b600061098e60048361182a565b600081815260066020526040902080546001600160a01b0319166001600160a01b03841690811790915581906111cf82610a64565b6001600160a01b03167f8c5be1e5ebec7d5bd14f71427d1e84f3dd0314c0f7b2291e5b200ac8c7c3b92560405160405180910390a45050565b6112118261118d565b6112725760405162461bcd60e51b815260206004820152602c60248201527f4552433732314d657461646174613a2055524920736574206f66206e6f6e657860448201526b34b9ba32b73a103a37b5b2b760a11b606482015260840161077b565b6000828152600a6020908152604090912082516108b192840190611ec9565b600061098e825490565b60006112a68261118d565b6113075760405162461bcd60e51b815260206004820152602c60248201527f4552433732313a206f70657261746f7220717565727920666f72206e6f6e657860448201526b34b9ba32b73a103a37b5b2b760a11b606482015260840161077b565b600061131283610a64565b9050806001600160a01b0316846001600160a01b0316148061134d5750836001600160a01b031661134284610713565b6001600160a01b0316145b8061137d57506001600160a01b0380821660009081526007602090815260408083209388168352929052205460ff165b949350505050565b826001600160a01b031661139882610a64565b6001600160a01b0316146114005760405162461bcd60e51b815260206004820152602960248201527f4552433732313a207472616e73666572206f6620746f6b656e2074686174206960448201526839903737ba1037bbb760b91b606482015260840161077b565b6001600160a01b0382166114625760405162461bcd60e51b8152602060048201526024808201527f4552433732313a207472616e7366657220746f20746865207a65726f206164646044820152637265737360e01b606482015260840161077b565b61146d60008261119a565b6001600160a01b038316600090815260036020526040902061148f9082611842565b506001600160a01b03821660009081526003602052604090206114b2908261184e565b506114bf6004828461185a565b506114eb816000908152600160208190526040822090810191909155600201805460ff19166004179055565b80826001600160a01b0316846001600160a01b03167fddf252ad1be2c89b69c2b068fc378daa952ba7f163c4a11628f55a4df523b3ef60405160405180910390a4505050565b600061098b8383611870565b600080808061154c86866118f6565b9097909650945050505050565b80516108ea90600b906020840190611ec9565b6000611579848484611993565b90505b9392505050565b600061098b8284612481565b6001600160a01b0382166115e55760405162461bcd60e51b815260206004820181905260248201527f4552433732313a206d696e7420746f20746865207a65726f2061646472657373604482015260640161077b565b6115ee8161118d565b1561163b5760405162461bcd60e51b815260206004820152601c60248201527f4552433732313a20746f6b656e20616c7265616479206d696e74656400000000604482015260640161077b565b6001600160a01b038216600090815260036020526040902061165d908261184e565b5061166a6004828461185a565b5060405181906001600160a01b038416906000907fddf252ad1be2c89b69c2b068fc378daa952ba7f163c4a11628f55a4df523b3ef908290a45050565b604080516001600160a01b038416602482015260448082018490528251808303909101815260649091019091526020810180516001600160e01b031663a9059cbb60e01b1790526108b19084906119fc565b611704848484611385565b61171084848484611ace565b610f2a5760405162461bcd60e51b815260040161077b90612499565b6060816117505750506040805180820190915260018152600360fc1b602082015290565b8160005b811561177a578061176481612421565b91506117739050600a83612501565b9150611754565b60008167ffffffffffffffff8111156117955761179561205f565b6040519080825280601f01601f1916602001820160405280156117bf576020820181803683370190505b5090505b841561137d576117d4600183612515565b91506117e1600a8661252c565b6117ec906030612481565b60f81b8183815181106118015761180161243c565b60200101906001600160f81b031916908160001a905350611823600a86612501565b94506117c3565b6000818152600183016020526040812054151561098b565b600061098b8383611bdb565b600061098b8383611cce565b600061157984846001600160a01b038516611d1d565b815460009082106118ce5760405162461bcd60e51b815260206004820152602260248201527f456e756d657261626c655365743a20696e646578206f7574206f6620626f756e604482015261647360f01b606482015260840161077b565b8260000182815481106118e3576118e361243c565b9060005260206000200154905092915050565b8154600090819083106119565760405162461bcd60e51b815260206004820152602260248201527f456e756d657261626c654d61703a20696e646578206f7574206f6620626f756e604482015261647360f01b606482015260840161077b565b600084600001848154811061196d5761196d61243c565b906000526020600020906002020190508060000154816001015492509250509250929050565b600082815260018401602052604081205482816119c35760405162461bcd60e51b815260040161077b9190611fed565b50846119d0600183612515565b815481106119e0576119e061243c565b9060005260206000209060020201600101549150509392505050565b6000611a51826040518060400160405280602081526020017f5361666545524332303a206c6f772d6c6576656c2063616c6c206661696c6564815250856001600160a01b0316611dbe9092919063ffffffff16565b8051909150156108b15780806020019051810190611a6f9190612540565b6108b15760405162461bcd60e51b815260206004820152602a60248201527f5361666545524332303a204552433230206f7065726174696f6e20646964206e6044820152691bdd081cdd58d8d9595960b21b606482015260840161077b565b60006001600160a01b0384163b15611bd057604051630a85bd0160e11b81526001600160a01b0385169063150b7a0290611b1290339089908890889060040161255d565b602060405180830381600087803b158015611b2c57600080fd5b505af1925050508015611b5c575060408051601f3d908101601f19168201909252611b599181019061259a565b60015b611bb6573d808015611b8a576040519150601f19603f3d011682016040523d82523d6000602084013e611b8f565b606091505b508051611bae5760405162461bcd60e51b815260040161077b90612499565b805181602001fd5b6001600160e01b031916630a85bd0160e11b14905061137d565b506001949350505050565b60008181526001830160205260408120548015611cc4576000611bff600183612515565b8554909150600090611c1390600190612515565b90506000866000018281548110611c2c57611c2c61243c565b9060005260206000200154905080876000018481548110611c4f57611c4f61243c565b600091825260209091200155611c66836001612481565b60008281526001890160205260409020558654879080611c8857611c886125b7565b6001900381819060005260206000200160009055905586600101600087815260200190815260200160002060009055600194505050505061098e565b600091505061098e565b6000818152600183016020526040812054611d155750815460018181018455600084815260208082209093018490558454848252828601909352604090209190915561098e565b50600061098e565b600082815260018401602052604081205480611d8257505060408051808201825283815260208082018481528654600181810189556000898152848120955160029093029095019182559151908201558654868452818801909252929091205561157c565b8285611d8f600184612515565b81548110611d9f57611d9f61243c565b906000526020600020906002020160010181905550600091505061157c565b6060611579848460008585843b611e175760405162461bcd60e51b815260206004820152601d60248201527f416464726573733a2063616c6c20746f206e6f6e2d636f6e7472616374000000604482015260640161077b565b600080866001600160a01b03168587604051611e3391906125cd565b60006040518083038185875af1925050503d8060008114611e70576040519150601f19603f3d011682016040523d82523d6000602084013e611e75565b606091505b5091509150611e85828286611e90565b979650505050505050565b60608315611e9f57508161157c565b825115611eaf5782518084602001fd5b8160405162461bcd60e51b815260040161077b9190611fed565b828054611ed590612350565b90600052602060002090601f016020900481019282611ef75760008555611f3d565b82601f10611f1057805160ff1916838001178555611f3d565b82800160010185558215611f3d579182015b82811115611f3d578251825591602001919060010190611f22565b50611f49929150611f4d565b5090565b5b80821115611f495760008155600101611f4e565b6001600160e01b031981168114610a6157600080fd5b600060208284031215611f8a57600080fd5b813561157c81611f62565b60005b83811015611fb0578181015183820152602001611f98565b83811115610f2a5750506000910152565b60008151808452611fd9816020860160208601611f95565b601f01601f19169290920160200192915050565b60208152600061098b6020830184611fc1565b60006020828403121561201257600080fd5b5035919050565b80356001600160a01b038116811461203057600080fd5b919050565b6000806040838503121561204857600080fd5b61205183612019565b946020939093013593505050565b634e487b7160e01b600052604160045260246000fd5b600067ffffffffffffffff808411156120905761209061205f565b604051601f8501601f19908116603f011681019082821181831017156120b8576120b861205f565b816040528093508581528686860111156120d157600080fd5b858560208301376000602087830101525050509392505050565b600082601f8301126120fc57600080fd5b61098b83833560208501612075565b6000806040838503121561211e57600080fd5b82359150602083013567ffffffffffffffff81111561213c57600080fd5b612148858286016120eb565b9150509250929050565b60008060006060848603121561216757600080fd5b61217084612019565b925061217e60208501612019565b9150604084013590509250925092565b6000602082840312156121a057600080fd5b813567ffffffffffffffff8111156121b757600080fd5b61137d848285016120eb565b6000602082840312156121d557600080fd5b61098b82612019565b83815260208101839052606081016005831061220a57634e487b7160e01b600052602160045260246000fd5b826040830152949350505050565b6020808252825182820181905260009190848201906040850190845b8181101561225057835183529284019291840191600101612234565b50909695505050505050565b8015158114610a6157600080fd5b6000806040838503121561227d57600080fd5b61228683612019565b915060208301356122968161225c565b809150509250929050565b600080600080608085870312156122b757600080fd5b6122c085612019565b93506122ce60208601612019565b925060408501359150606085013567ffffffffffffffff8111156122f157600080fd5b8501601f8101871361230257600080fd5b61231187823560208401612075565b91505092959194509250565b6000806040838503121561233057600080fd5b61233983612019565b915061234760208401612019565b90509250929050565b600181811c9082168061236457607f821691505b60208210811415610d5a57634e487b7160e01b600052602260045260246000fd5b6020808252818101527f4f776e61626c653a2063616c6c6572206973206e6f7420746865206f776e6572604082015260600190565b60208082526031908201527f4552433732313a207472616e736665722063616c6c6572206973206e6f74206f6040820152701ddb995c881b9bdc88185c1c1c9bdd9959607a1b606082015260800190565b634e487b7160e01b600052601160045260246000fd5b60006000198214156124355761243561240b565b5060010190565b634e487b7160e01b600052603260045260246000fd5b60008351612464818460208801611f95565b835190830190612478818360208801611f95565b01949350505050565b600082198211156124945761249461240b565b500190565b60208082526032908201527f4552433732313a207472616e7366657220746f206e6f6e20455243373231526560408201527131b2b4bb32b91034b6b83632b6b2b73a32b960711b606082015260800190565b634e487b7160e01b600052601260045260246000fd5b600082612510576125106124eb565b500490565b6000828210156125275761252761240b565b500390565b60008261253b5761253b6124eb565b500690565b60006020828403121561255257600080fd5b815161157c8161225c565b6001600160a01b038581168252841660208201526040810183905260806060820181905260009061259090830184611fc1565b9695505050505050565b6000602082840312156125ac57600080fd5b815161157c81611f62565b634e487b7160e01b600052603160045260246000fd5b600082516125df818460208701611f95565b919091019291505056fe4552433732313a206f776e657220717565727920666f72206e6f6e6578697374656e7420746f6b656ea2646970667358221220f78cdcbecd92337d17512290490e04384758f1b9739cadf694acdab9a903fe0a64736f6c63430008090033",
  "linkReferences": {},
  "deployedLinkReferences": {}
}