{
  "_format": "hh-sol-artifact-1",
  "contractName": "Redeem",
  "sourceName": "contracts/Redeem.sol",
  "abi": [
    {
      "inputs": [
        {
          "internalType": "contract IERC20",
          "name": "_beamsock",
          "type": "address"
        },
        {
          "internalType": "contract HuskyJoeHat",
          "name": "_sockNFT",
          "type": "address"
        }
      ],
      "stateMutability": "nonpayable",
      "type": "constructor"
    },
    {
      "inputs": [
        {
          "internalType": "uint256",
          "name": "_amount",
          "type": "uint256"
        }
      ],
      "name": "BuyBurn",
      "outputs": [],
      "stateMutability": "nonpayable",
      "type": "function"
    },
    {
      "inputs": [],
      "name": "addmarketing",
      "outputs": [
        {
          "internalType": "address",
          "name": "",
          "type": "address"
        }
      ],
      "stateMutability": "view",
      "type": "function"
    },
    {
      "inputs": [],
      "name": "beamsock",
      "outputs": [
        {
          "internalType": "contract IERC20",
          "name": "",
          "type": "address"
        }
      ],
      "stateMutability": "view",
      "type": "function"
    },
    {
      "inputs": [],
      "name": "dead",
      "outputs": [
        {
          "internalType": "address",
          "name": "",
          "type": "address"
        }
      ],
      "stateMutability": "view",
      "type": "function"
    },
    {
      "inputs": [],
      "name": "marketing",
      "outputs": [
        {
          "internalType": "uint256",
          "name": "",
          "type": "uint256"
        }
      ],
      "stateMutability": "view",
      "type": "function"
    },
    {
      "inputs": [],
      "name": "sockNFT",
      "outputs": [
        {
          "internalType": "contract HuskyJoeHat",
          "name": "",
          "type": "address"
        }
      ],
      "stateMutability": "view",
      "type": "function"
    }
  ],
  "bytecode": "0x6080604052600a600255600480546001600160a01b03191661dead17905534801561002957600080fd5b5060405161046a38038061046a83398101604081905261004891610091565b600080546001600160a01b039384166001600160a01b031991821617909155600180549290931691161790556100cb565b6001600160a01b038116811461008e57600080fd5b50565b600080604083850312156100a457600080fd5b82516100af81610079565b60208401519092506100c081610079565b809150509250929050565b610390806100da6000396000f3fe608060405234801561001057600080fd5b50600436106100625760003560e01c80632d3e474a1461006757806336cf7c87146100835780633ba66e1a146100ae5780635a85b757146100c15780639b96e2d4146100d4578063de354d5f146100e9575b600080fd5b61007060025481565b6040519081526020015b60405180910390f35b600454610096906001600160a01b031681565b6040516001600160a01b03909116815260200161007a565b600354610096906001600160a01b031681565b600054610096906001600160a01b031681565b6100e76100e23660046102d0565b6100fc565b005b600154610096906001600160a01b031681565b600061011082670de0b6b3a76400006102e9565b6000546040516323b872dd60e01b8152336004820152306024820152604481018390529192506001600160a01b0316906323b872dd90606401602060405180830381600087803b15801561016357600080fd5b505af1158015610177573d6000803e3d6000fd5b505050506040513d601f19601f8201168201806040525081019061019b9190610316565b506000546003546002546001600160a01b039283169263a9059cbb9216906101d09085906101ca9060646102b1565b906102c4565b6040516001600160e01b031960e085901b1681526001600160a01b0390921660048301526024820152604401602060405180830381600087803b15801561021657600080fd5b505af115801561022a573d6000803e3d6000fd5b505050506040513d601f19601f8201168201806040525081019061024e9190610316565b506001546040516376adcab560e01b8152600481018490526001600160a01b03909116906376adcab590602401600060405180830381600087803b15801561029557600080fd5b505af11580156102a9573d6000803e3d6000fd5b505050505050565b60006102bd8284610338565b9392505050565b60006102bd82846102e9565b6000602082840312156102e257600080fd5b5035919050565b600081600019048311821515161561031157634e487b7160e01b600052601160045260246000fd5b500290565b60006020828403121561032857600080fd5b815180151581146102bd57600080fd5b60008261035557634e487b7160e01b600052601260045260246000fd5b50049056fea264697066735822122005cbfe97a2fbc7f69fc51685eabe55fd27e18bfa89db1dee4e9213203b9a496764736f6c63430008090033",
  "linkReferences": {},
  "deployedLinkReferences": {}
}